:100000000EC027C025C04DC023C022C021C020C0C3
:100010001FC01EC05CC01CC01BC01AC019C0112468
:100020001FBECFEDCDBF10E0A0E6B0E0EEE2F4E001
:1000300002C005900D92A23AB107D9F720E0A2EADA
:10004000B0E001C01D92A03BB207E1F7EBD0EDC1DB
:10005000D7CF1F920F920FB60F9211248F939F93B9
:10006000AF93BF938091A9009091AA00A091AB009B
:10007000B091AC000196A11DB11D8093A900909391
:10008000AA00A093AB00B093AC001FBC82E080BF7D
:10009000BF91AF919F918F910F900FBE0F901F90C6
:1000A00018951F920F920FB60F9211248F939F9362
:1000B00010BE81E090E09093A7008093A600C098C6
:1000C0009F918F910F900FBE0F901F9018951F92C8
:1000D0000F920FB60F9211248F9386E689BD81E0AF
:1000E0008093AD0012BE8F910F900FBE0F901F90A6
:1000F00018959091AE00983060F0C39A1092AF00BE
:100100001092A8001092AD001092AE0013BE19BC60
:1001100008952091AD00213061F52091AF002111AB
:100120000AC080E88093A80081E08093AF009150DE
:100130009093AE000EC0282F30E0A90102C0559563
:1001400047959A95E2F7CA01879588278795809306
:10015000A8008091A800882321F0803819F4C39862
:1001600001C0C39A8091AE008F5F8093AE00109261
:10017000AD000895CF93DF93D82FD09582E083BF51
:10018000CAE09091AD009923E1F38D2FB2DFC15009
:10019000C1F7DF91CF910895CF93DF93EC01888170
:1001A000882329F02196E6DF89918111FCCFDF9128
:1001B000CF9108950F931F93CF93DF93EB0120E02E
:1001C0000AE010E031E0320FFE01E20FF11DB8014C
:1001D00018D1805D8083862F972F232F009791F76A
:1001E000FE01E30FF11D1082FE0101900020E9F7EE
:1001F000EC1B5EEF5E0F89F080E09E01280F311D41
:10020000D9019C91DE01A50FB11D4C91F9014083EC
:100210009C938F5F5150851780F3DF91CF911F9191
:100220000F910895CF93DF93CDB7DD27C350CDBF96
:10023000BC9AC498B99AC198B89AC098BB9AC39A04
:1002400085B7826085BF85B7816085BF83E98EBD34
:1002500089B7806189BF1092A9001092AA001092FC
:10026000AB001092AC00789480E690E095DF8FE1CF
:100270009EE40197F1F700C000008DE07BDF8AE08B
:1002800079DF9FEF20E782E0915020408040E1F746
:1002900000C00000C09A8FE19EE40197F1F700C012
:1002A00000008BB780648BBF89B7806489BF689476
:1002B000992495F802E010E0EE24E394F12C8DE807
:1002C00090E0A82E8BE890E0B82E0F2EF3E0CF2E12
:1002D000D12CF02D8091A6009091A700019709F0F4
:1002E0005CC08091A9009091AA00A091AB00B09150
:1002F000AC00BA2FA92F982F8827072E7CE0B6953F
:10030000A795979587957A95D1F7702DC297A109F2
:10031000B1099093A3008093A2001816190614F453
:100320009B2C0EC099234CF4919581959109909343
:10033000A3008093A2009A2C03C06894992495F896
:10034000BE016F5F7F4F8091A2009091A30032DFCA
:100350001092A9001092AA001092AB001092AC006B
:100360001093A7000093A6008091A4009091A5008F
:10037000892B41F48FE890E00FDFF092A500E09226
:10038000A40007C080E990E007DF1092A50010925A
:10039000A4008DE0EFDE8AE0EDDE8091A600909172
:1003A000A700029721F583E990E0F6DE892D90E021
:1003B000F3DECE010196F0DE8FE990E0EDDE8DE018
:1003C000D9DE8AE0D7DED092A700C092A6008BB714
:1003D0008F7B8BBFC09A8FE19EE40197F1F700C03D
:1003E00000008AB780648ABF8BB780648BBF9FEFA1
:1003F00024E38CE0915020408040E1F700C00000F1
:1004000069CFAA1BBB1B51E107C0AA1FBB1FA617C0
:10041000B70710F0A61BB70B881F991F5A95A9F7AD
:0E04200080959095BC01CD010895F894FFCF12
:10042E003D20204C4D5430312064656D6F2070722C
:10043E006F6772616D6D20666F7220415474696EC4
:10044E00793235204D435520203D002B002D002EB6
:10045E002E2E004C4D5430312074656D703A0020B4
:02046E00430049
:04000005008000AFC8
:00000001FF
